{
  "_format": "hh-sol-artifact-1",
  "contractName": "CrowdFunding",
  "sourceName": "contracts/CrowdFunding.sol",
  "abi": [
    {
      "inputs": [
        {
          "internalType": "uint256",
          "name": "",
          "type": "uint256"
        }
      ],
      "name": "campaigns",
      "outputs": [
        {
          "internalType": "address",
          "name": "owner",
          "type": "address"
        },
        {
          "internalType": "string",
          "name": "title",
          "type": "string"
        },
        {
          "internalType": "string",
          "name": "description",
          "type": "string"
        },
        {
          "internalType": "uint256",
          "name": "target",
          "type": "uint256"
        },
        {
          "internalType": "uint256",
          "name": "deadline",
          "type": "uint256"
        },
        {
          "internalType": "uint256",
          "name": "amountCollected",
          "type": "uint256"
        },
        {
          "internalType": "string",
          "name": "image",
          "type": "string"
        }
      ],
      "stateMutability": "view",
      "type": "function"
    },
    {
      "inputs": [
        {
          "internalType": "address",
          "name": "_owner",
          "type": "address"
        },
        {
          "internalType": "string",
          "name": "_title",
          "type": "string"
        },
        {
          "internalType": "string",
          "name": "_description",
          "type": "string"
        },
        {
          "internalType": "uint256",
          "name": "_target",
          "type": "uint256"
        },
        {
          "internalType": "uint256",
          "name": "_deadline",
          "type": "uint256"
        },
        {
          "internalType": "string",
          "name": "_image",
          "type": "string"
        }
      ],
      "name": "createCampaigns",
      "outputs": [
        {
          "internalType": "uint256",
          "name": "",
          "type": "uint256"
        }
      ],
      "stateMutability": "nonpayable",
      "type": "function"
    },
    {
      "inputs": [
        {
          "internalType": "uint256",
          "name": "_id",
          "type": "uint256"
        }
      ],
      "name": "donateToCampaign",
      "outputs": [],
      "stateMutability": "payable",
      "type": "function"
    },
    {
      "inputs": [],
      "name": "getCampaigns",
      "outputs": [
        {
          "components": [
            {
              "internalType": "address",
              "name": "owner",
              "type": "address"
            },
            {
              "internalType": "string",
              "name": "title",
              "type": "string"
            },
            {
              "internalType": "string",
              "name": "description",
              "type": "string"
            },
            {
              "internalType": "uint256",
              "name": "target",
              "type": "uint256"
            },
            {
              "internalType": "uint256",
              "name": "deadline",
              "type": "uint256"
            },
            {
              "internalType": "uint256",
              "name": "amountCollected",
              "type": "uint256"
            },
            {
              "internalType": "string",
              "name": "image",
              "type": "string"
            },
            {
              "internalType": "address[]",
              "name": "donators",
              "type": "address[]"
            },
            {
              "internalType": "uint256[]",
              "name": "donations",
              "type": "uint256[]"
            }
          ],
          "internalType": "struct CrowdFunding.CampaignStruct[]",
          "name": "",
          "type": "tuple[]"
        }
      ],
      "stateMutability": "view",
      "type": "function"
    },
    {
      "inputs": [
        {
          "internalType": "uint256",
          "name": "_id",
          "type": "uint256"
        }
      ],
      "name": "getDonators",
      "outputs": [
        {
          "internalType": "address[]",
          "name": "",
          "type": "address[]"
        },
        {
          "internalType": "uint256[]",
          "name": "",
          "type": "uint256[]"
        }
      ],
      "stateMutability": "view",
      "type": "function"
    },
    {
      "inputs": [],
      "name": "numberOfCampaigns",
      "outputs": [
        {
          "internalType": "uint256",
          "name": "",
          "type": "uint256"
        }
      ],
      "stateMutability": "view",
      "type": "function"
    }
  ],
  "bytecode": "0x6080604052600060015534801561001557600080fd5b50610f1a806100256000396000f3fe6080604052600436106100555760003560e01c806307ca140d1461005a5780630fa91fa914610083578063141961bc146100b157806342a4fda8146100e4578063a6b03633146100f9578063b33e91f61461011b575b600080fd5b34801561006657600080fd5b5061007060015481565b6040519081526020015b60405180910390f35b34801561008f57600080fd5b506100a361009e366004610a08565b61013b565b60405161007a929190610a21565b3480156100bd57600080fd5b506100d16100cc366004610a08565b61020a565b60405161007a9796959493929190610af2565b6100f76100f2366004610a08565b6103e7565b005b34801561010557600080fd5b5061010e6104ad565b60405161007a9190610bd0565b34801561012757600080fd5b50610070610136366004610d80565b610854565b600081815260208181526040918290206007810180548451818502810185019095528085526060948594929360080192909184918301828280156101a857602002820191906000526020600020905b81546001600160a01b0316815260019091019060200180831161018a575b50505050509150808054806020026020016040519081016040528092919081815260200182805480156101fa57602002820191906000526020600020905b8154815260200190600101908083116101e6575b5050505050905091509150915091565b600060208190529081526040902080546001820180546001600160a01b03909216929161023690610e39565b80601f016020809104026020016040519081016040528092919081815260200182805461026290610e39565b80156102af5780601f10610284576101008083540402835291602001916102af565b820191906000526020600020905b81548152906001019060200180831161029257829003601f168201915b5050505050908060020180546102c490610e39565b80601f01602080910402602001604051908101604052809291908181526020018280546102f090610e39565b801561033d5780601f106103125761010080835404028352916020019161033d565b820191906000526020600020905b81548152906001019060200180831161032057829003601f168201915b50505050509080600301549080600401549080600501549080600601805461036490610e39565b80601f016020809104026020016040519081016040528092919081815260200182805461039090610e39565b80156103dd5780601f106103b2576101008083540402835291602001916103dd565b820191906000526020600020905b8154815290600101906020018083116103c057829003601f168201915b5050505050905087565b600081815260208181526040808320600781018054600180820183559186528486200180546001600160a01b0319163317905560088201805491820181558552928420349301839055805491519293909290916001600160a01b03169084908381818185875af1925050503d806000811461047e576040519150601f19603f3d011682016040523d82523d6000602084013e610483565b606091505b5050905080156104a757828260050160008282546104a19190610e84565b90915550505b50505050565b6060600060015467ffffffffffffffff8111156104cc576104cc610cdd565b60405190808252806020026020018201604052801561055557816020015b61054260405180610120016040528060006001600160a01b0316815260200160608152602001606081526020016000815260200160008152602001600081526020016060815260200160608152602001606081525090565b8152602001906001900390816104ea5790505b50905060005b60015481101561084e57600081815260208181526040918290208251610120810190935280546001600160a01b0316835260018101805491928401916105a090610e39565b80601f01602080910402602001604051908101604052809291908181526020018280546105cc90610e39565b80156106195780601f106105ee57610100808354040283529160200191610619565b820191906000526020600020905b8154815290600101906020018083116105fc57829003601f168201915b5050505050815260200160028201805461063290610e39565b80601f016020809104026020016040519081016040528092919081815260200182805461065e90610e39565b80156106ab5780601f10610680576101008083540402835291602001916106ab565b820191906000526020600020905b81548152906001019060200180831161068e57829003601f168201915b505050505081526020016003820154815260200160048201548152602001600582015481526020016006820180546106e290610e39565b80601f016020809104026020016040519081016040528092919081815260200182805461070e90610e39565b801561075b5780601f106107305761010080835404028352916020019161075b565b820191906000526020600020905b81548152906001019060200180831161073e57829003601f168201915b50505050508152602001600782018054806020026020016040519081016040528092919081815260200182805480156107bd57602002820191906000526020600020905b81546001600160a01b0316815260019091019060200180831161079f575b505050505081526020016008820180548060200260200160405190810160405280929190818152602001828054801561081557602002820191906000526020600020905b815481526020019060010190808311610801575b50505050508152505082828151811061083057610830610e9c565b6020026020010181905250808061084690610eb2565b91505061055b565b50919050565b6001546000908152602081905260408120600481015442116108d05760405162461bcd60e51b815260206004820152602b60248201527f54686520646561646c696e652073686f756c642062652061206461746520696e60448201526a207468652066757475726560a81b606482015260840160405180910390fd5b80546001600160a01b0319166001600160a01b03891617815586516108fe90600183019060208a019061096f565b508551610914906002830190602089019061096f565b50600381018590556004810184905560006005820155825161093f906006830190602086019061096f565b506001805490600061095083610eb2565b9190505550600180546109639190610ecd565b98975050505050505050565b82805461097b90610e39565b90600052602060002090601f01602090048101928261099d57600085556109e3565b82601f106109b657805160ff19168380011785556109e3565b828001600101855582156109e3579182015b828111156109e35782518255916020019190600101906109c8565b506109ef9291506109f3565b5090565b5b808211156109ef57600081556001016109f4565b600060208284031215610a1a57600080fd5b5035919050565b604080825283519082018190526000906020906060840190828701845b82811015610a635781516001600160a01b031684529284019290840190600101610a3e565b5050508381038285015284518082528583019183019060005b81811015610a9857835183529284019291840191600101610a7c565b5090979650505050505050565b6000815180845260005b81811015610acb57602081850181015186830182015201610aaf565b81811115610add576000602083870101525b50601f01601f19169290920160200192915050565b6001600160a01b038816815260e060208201819052600090610b1690830189610aa5565b8281036040840152610b288189610aa5565b90508660608401528560808401528460a084015282810360c0840152610b4e8185610aa5565b9a9950505050505050505050565b600081518084526020808501945080840160005b83811015610b955781516001600160a01b031687529582019590820190600101610b70565b509495945050505050565b600081518084526020808501945080840160005b83811015610b9557815187529582019590820190600101610bb4565b60006020808301818452808551808352604092508286019150828160051b87010184880160005b83811015610ccf57888303603f19018552815180516001600160a01b0316845261012088820151818a870152610c2f82870182610aa5565b9150508782015185820389870152610c478282610aa5565b606084810151908801526080808501519088015260a0808501519088015260c080850151888303828a01529193509150610c818382610aa5565b9250505060e08083015186830382880152610c9c8382610b5c565b925050506101008083015192508582038187015250610cbb8183610ba0565b968901969450505090860190600101610bf7565b509098975050505050505050565b634e487b7160e01b600052604160045260246000fd5b600082601f830112610d0457600080fd5b813567ffffffffffffffff80821115610d1f57610d1f610cdd565b604051601f8301601f19908116603f01168101908282118183101715610d4757610d47610cdd565b81604052838152866020858801011115610d6057600080fd5b836020870160208301376000602085830101528094505050505092915050565b60008060008060008060c08789031215610d9957600080fd5b86356001600160a01b0381168114610db057600080fd5b9550602087013567ffffffffffffffff80821115610dcd57600080fd5b610dd98a838b01610cf3565b96506040890135915080821115610def57600080fd5b610dfb8a838b01610cf3565b9550606089013594506080890135935060a0890135915080821115610e1f57600080fd5b50610e2c89828a01610cf3565b9150509295509295509295565b600181811c90821680610e4d57607f821691505b6020821081141561084e57634e487b7160e01b600052602260045260246000fd5b634e487b7160e01b600052601160045260246000fd5b60008219821115610e9757610e97610e6e565b500190565b634e487b7160e01b600052603260045260246000fd5b6000600019821415610ec657610ec6610e6e565b5060010190565b600082821015610edf57610edf610e6e565b50039056fea2646970667358221220b483794f6a80f6341dd06a839ea78aa79c15154e56a3c7dd6c8737b5815bea9964736f6c63430008090033",
  "linkReferences": {},
  "deployedLinkReferences": {}
}